{
  "transactions": [
    {
      "hash": "0x4d4ed3d847390c7f92763e91a7eb1f171c0f47ab4954b855525b875f4bf6000b",
      "transactionType": "CALL",
      "contractName": null,
      "contractAddress": "0x1c7090947a5005ec362f108178270eb3d1bca4c0",
      "function": "enableLltv(uint256)",
      "arguments": [
        "385000000000000000"
      ],
      "transaction": {
        "from": "0xb4b3ebfa3b96f4ae2f0d30b344c8dd01411be50b",
        "to": "0x1c7090947a5005ec362f108178270eb3d1bca4c0",
        "gas": "0x101c0",
        "value": "0x0",
        "input": "0x4d98a93b0000000000000000000000000000000000000000000000000557cb75ce868000",
        "nonce": "0x10b",
        "chainId": "0xaa36a7"
      },
      "additionalContracts": [],
      "isFixedGasLimit": false
    },
    {
      "hash": "0x74cee09b08a90180a1ed248fd439465f5876353034e71b4989e533b8f0b469c4",
      "transactionType": "CALL",
      "contractName": null,
      "contractAddress": "0x1c7090947a5005ec362f108178270eb3d1bca4c0",
      "function": "enableLltv(uint256)",
      "arguments": [
        "625000000000000000"
      ],
      "transaction": {
        "from": "0xb4b3ebfa3b96f4ae2f0d30b344c8dd01411be50b",
        "to": "0x1c7090947a5005ec362f108178270eb3d1bca4c0",
        "gas": "0x101c0",
        "value": "0x0",
        "input": "0x4d98a93b00000000000000000000000000000000000000000000000008ac7230489e8000",
        "nonce": "0x10c",
        "chainId": "0xaa36a7"
      },
      "additionalContracts": [],
      "isFixedGasLimit": false
    },
    {
      "hash": "0x8a312c932227a758201da3f3f9d014be6a51c1cc258d575ee8bb6f18a06e4f97",
      "transactionType": "CALL",
      "contractName": null,
      "contractAddress": "0x1c7090947a5005ec362f108178270eb3d1bca4c0",
      "function": "enableLltv(uint256)",
      "arguments": [
        "770000000000000000"
      ],
      "transaction": {
        "from": "0xb4b3ebfa3b96f4ae2f0d30b344c8dd01411be50b",
        "to": "0x1c7090947a5005ec362f108178270eb3d1bca4c0",
        "gas": "0x101b0",
        "value": "0x0",
        "input": "0x4d98a93b0000000000000000000000000000000000000000000000000aaf96eb9d0d0000",
        "nonce": "0x10d",
        "chainId": "0xaa36a7"
      },
      "additionalContracts": [],
      "isFixedGasLimit": false
    },
    {
      "hash": "0x9858deef4af662d5756258666e619e3c3a132906504414dd1522b5bf6bd1d0a8",
      "transactionType": "CALL",
      "contractName": null,
      "contractAddress": "0x1c7090947a5005ec362f108178270eb3d1bca4c0",
      "function": "enableLltv(uint256)",
      "arguments": [
        "860000000000000000"
      ],
      "transaction": {
        "from": "0xb4b3ebfa3b96f4ae2f0d30b344c8dd01411be50b",
        "to": "0x1c7090947a5005ec362f108178270eb3d1bca4c0",
        "gas": "0x101b0",
        "value": "0x0",
        "input": "0x4d98a93b0000000000000000000000000000000000000000000000000bef55718ad60000",
        "nonce": "0x10e",
        "chainId": "0xaa36a7"
      },
      "additionalContracts": [],
      "isFixedGasLimit": false
    },
    {
      "hash": "0xaf81a0ef8ca6e8523a02c96237e60946fea0286b470f475bc3372085aafdf4cd",
      "transactionType": "CALL",
      "contractName": null,
      "contractAddress": "0x1c7090947a5005ec362f108178270eb3d1bca4c0",
      "function": "enableLltv(uint256)",
      "arguments": [
        "915000000000000000"
      ],
      "transaction": {
        "from": "0xb4b3ebfa3b96f4ae2f0d30b344c8dd01411be50b",
        "to": "0x1c7090947a5005ec362f108178270eb3d1bca4c0",
        "gas": "0x101c0",
        "value": "0x0",
        "input": "0x4d98a93b0000000000000000000000000000000000000000000000000cb2bba6f17b8000",
        "nonce": "0x10f",
        "chainId": "0xaa36a7"
      },
      "additionalContracts": [],
      "isFixedGasLimit": false
    },
    {
      "hash": "0xb38b15bb3d97b1bb33d4667953be5f10391aa04dacb8a506c0bf66c40f5253ae",
      "transactionType": "CALL",
      "contractName": null,
      "contractAddress": "0x1c7090947a5005ec362f108178270eb3d1bca4c0",
      "function": "enableLltv(uint256)",
      "arguments": [
        "945000000000000000"
      ],
      "transaction": {
        "from": "0xb4b3ebfa3b96f4ae2f0d30b344c8dd01411be50b",
        "to": "0x1c7090947a5005ec362f108178270eb3d1bca4c0",
        "gas": "0x101c0",
        "value": "0x0",
        "input": "0x4d98a93b0000000000000000000000000000000000000000000000000d1d507e40be8000",
        "nonce": "0x110",
        "chainId": "0xaa36a7"
      },
      "additionalContracts": [],
      "isFixedGasLimit": false
    },
    {
      "hash": "0x3d2c1d9a586f5607f715f74583b2ac2851ba089a0fddee0a38be4f594fa5f977",
      "transactionType": "CALL",
      "contractName": null,
      "contractAddress": "0x1c7090947a5005ec362f108178270eb3d1bca4c0",
      "function": "enableLltv(uint256)",
      "arguments": [
        "965000000000000000"
      ],
      "transaction": {
        "from": "0xb4b3ebfa3b96f4ae2f0d30b344c8dd01411be50b",
        "to": "0x1c7090947a5005ec362f108178270eb3d1bca4c0",
        "gas": "0x101c0",
        "value": "0x0",
        "input": "0x4d98a93b0000000000000000000000000000000000000000000000000d645e6320408000",
        "nonce": "0x111",
        "chainId": "0xaa36a7"
      },
      "additionalContracts": [],
      "isFixedGasLimit": false
    },
    {
      "hash": "0x2337379639480cbe92109b469b581061abaddf8edf2766a87ee8a8843ddae940",
      "transactionType": "CALL",
      "contractName": null,
      "contractAddress": "0x1c7090947a5005ec362f108178270eb3d1bca4c0",
      "function": "enableLltv(uint256)",
      "arguments": [
        "980000000000000000"
      ],
      "transaction": {
        "from": "0xb4b3ebfa3b96f4ae2f0d30b344c8dd01411be50b",
        "to": "0x1c7090947a5005ec362f108178270eb3d1bca4c0",
        "gas": "0x101b0",
        "value": "0x0",
        "input": "0x4d98a93b0000000000000000000000000000000000000000000000000d99a8cec7e20000",
        "nonce": "0x112",
        "chainId": "0xaa36a7"
      },
      "additionalContracts": [],
      "isFixedGasLimit": false
    }
  ],
  "receipts": [
    {
      "status": "0x1",
      "cumulativeGasUsed": "0x101a18e",
      "logs": [
        {
          "address": "0x1c7090947a5005ec362f108178270eb3d1bca4c0",
          "topics": [
            "0x297b80e7a896fad470c630f6575072d609bde997260ff3db851939405ec29139"
          ],
          "data": "0x0000000000000000000000000000000000000000000000000557cb75ce868000",
          "blockHash": "0xf1b1bd948da8b819edf79e52f0fddcb3a9e9a7a9514200e46841b777852b18ae",
          "blockNumber": "0x95108f",
          "blockTimestamp": "0x6931d370",
          "transactionHash": "0x4d4ed3d847390c7f92763e91a7eb1f171c0f47ab4954b855525b875f4bf6000b",
          "transactionIndex": "0x2f",
          "logIndex": "0x13c",
          "removed": false
        }
      ],
      "logsBloom": "0x00000000000000000000000000000000000000000000000000000000000000000000000000000000000000000000000000000000000000000000000000000000000000000000000000000000000002000000000000000000000010000000000000040000000004000000000000000000000000000000000004000000000000000000000000000000000000000000000000040000000000000000000000000000000000000000000000000000000000000000000000000000000000000000000000000000000000000000000000000000000000000000000000000000000000000000000000000000000000000000000000000000000000000000000000000000",
      "type": "0x2",
      "transactionHash": "0x4d4ed3d847390c7f92763e91a7eb1f171c0f47ab4954b855525b875f4bf6000b",
      "transactionIndex": "0x2f",
      "blockHash": "0xf1b1bd948da8b819edf79e52f0fddcb3a9e9a7a9514200e46841b777852b18ae",
      "blockNumber": "0x95108f",
      "gasUsed": "0xba9c",
      "effectiveGasPrice": "0x13d6a04",
      "from": "0xb4b3ebfa3b96f4ae2f0d30b344c8dd01411be50b",
      "to": "0x1c7090947a5005ec362f108178270eb3d1bca4c0",
      "contractAddress": null
    },
    {
      "status": "0x1",
      "cumulativeGasUsed": "0x1025c2a",
      "logs": [
        {
          "address": "0x1c7090947a5005ec362f108178270eb3d1bca4c0",
          "topics": [
            "0x297b80e7a896fad470c630f6575072d609bde997260ff3db851939405ec29139"
          ],
          "data": "0x00000000000000000000000000000000000000000000000008ac7230489e8000",
          "blockHash": "0xf1b1bd948da8b819edf79e52f0fddcb3a9e9a7a9514200e46841b777852b18ae",
          "blockNumber": "0x95108f",
          "blockTimestamp": "0x6931d370",
          "transactionHash": "0x74cee09b08a90180a1ed248fd439465f5876353034e71b4989e533b8f0b469c4",
          "transactionIndex": "0x30",
          "logIndex": "0x13d",
          "removed": false
        }
      ],
      "logsBloom": "0x00000000000000000000000000000000000000000000000000000000000000000000000000000000000000000000000000000000000000000000000000000000000000000000000000000000000002000000000000000000000010000000000000040000000004000000000000000000000000000000000004000000000000000000000000000000000000000000000000040000000000000000000000000000000000000000000000000000000000000000000000000000000000000000000000000000000000000000000000000000000000000000000000000000000000000000000000000000000000000000000000000000000000000000000000000000",
      "type": "0x2",
      "transactionHash": "0x74cee09b08a90180a1ed248fd439465f5876353034e71b4989e533b8f0b469c4",
      "transactionIndex": "0x30",
      "blockHash": "0xf1b1bd948da8b819edf79e52f0fddcb3a9e9a7a9514200e46841b777852b18ae",
      "blockNumber": "0x95108f",
      "gasUsed": "0xba9c",
      "effectiveGasPrice": "0x13d6a04",
      "from": "0xb4b3ebfa3b96f4ae2f0d30b344c8dd01411be50b",
      "to": "0x1c7090947a5005ec362f108178270eb3d1bca4c0",
      "contractAddress": null
    },
    {
      "status": "0x1",
      "cumulativeGasUsed": "0x10316ba",
      "logs": [
        {
          "address": "0x1c7090947a5005ec362f108178270eb3d1bca4c0",
          "topics": [
            "0x297b80e7a896fad470c630f6575072d609bde997260ff3db851939405ec29139"
          ],
          "data": "0x0000000000000000000000000000000000000000000000000aaf96eb9d0d0000",
          "blockHash": "0xf1b1bd948da8b819edf79e52f0fddcb3a9e9a7a9514200e46841b777852b18ae",
          "blockNumber": "0x95108f",
          "blockTimestamp": "0x6931d370",
          "transactionHash": "0x8a312c932227a758201da3f3f9d014be6a51c1cc258d575ee8bb6f18a06e4f97",
          "transactionIndex": "0x31",
          "logIndex": "0x13e",
          "removed": false
        }
      ],
      "logsBloom": "0x00000000000000000000000000000000000000000000000000000000000000000000000000000000000000000000000000000000000000000000000000000000000000000000000000000000000002000000000000000000000010000000000000040000000004000000000000000000000000000000000004000000000000000000000000000000000000000000000000040000000000000000000000000000000000000000000000000000000000000000000000000000000000000000000000000000000000000000000000000000000000000000000000000000000000000000000000000000000000000000000000000000000000000000000000000000",
      "type": "0x2",
      "transactionHash": "0x8a312c932227a758201da3f3f9d014be6a51c1cc258d575ee8bb6f18a06e4f97",
      "transactionIndex": "0x31",
      "blockHash": "0xf1b1bd948da8b819edf79e52f0fddcb3a9e9a7a9514200e46841b777852b18ae",
      "blockNumber": "0x95108f",
      "gasUsed": "0xba90",
      "effectiveGasPrice": "0x13d6a04",
      "from": "0xb4b3ebfa3b96f4ae2f0d30b344c8dd01411be50b",
      "to": "0x1c7090947a5005ec362f108178270eb3d1bca4c0",
      "contractAddress": null
    },
    {
      "status": "0x1",
      "cumulativeGasUsed": "0x103d14a",
      "logs": [
        {
          "address": "0x1c7090947a5005ec362f108178270eb3d1bca4c0",
          "topics": [
            "0x297b80e7a896fad470c630f6575072d609bde997260ff3db851939405ec29139"
          ],
          "data": "0x0000000000000000000000000000000000000000000000000bef55718ad60000",
          "blockHash": "0xf1b1bd948da8b819edf79e52f0fddcb3a9e9a7a9514200e46841b777852b18ae",
          "blockNumber": "0x95108f",
          "blockTimestamp": "0x6931d370",
          "transactionHash": "0xaf81a0ef8ca6e8523a02c96237e60946fea0286b470f475bc3372085aafdf4cd",
          "transactionIndex": "0x32",
          "logIndex": "0x13f",
          "removed": false
        }
      ],
      "logsBloom": "0x00000000000000000000000000000000000000000000000000000000000000000000000000000000000000000000000000000000000000000000000000000000000000000000000000000000000002000000000000000000000010000000000000040000000004000000000000000000000000000000000004000000000000000000000000000000000000000000000000040000000000000000000000000000000000000000000000000000000000000000000000000000000000000000000000000000000000000000000000000000000000000000000000000000000000000000000000000000000000000000000000000000000000000000000000000000",
      "type": "0x2",
      "transactionHash": "0xaf81a0ef8ca6e8523a02c96237e60946fea0286b470f475bc3372085aafdf4cd",
      "transactionIndex": "0x32",
      "blockHash": "0xf1b1bd948da8b819edf79e52f0fddcb3a9e9a7a9514200e46841b777852b18ae",
      "blockNumber": "0x95108f",
      "gasUsed": "0xba90",
      "effectiveGasPrice": "0x13d6a04",
      "from": "0xb4b3ebfa3b96f4ae2f0d30b344c8dd01411be50b",
      "to": "0x1c7090947a5005ec362f108178270eb3d1bca4c0",
      "contractAddress": null
    },
    {
      "status": "0x1",
      "cumulativeGasUsed": "0x1048be6",
      "logs": [
        {
          "address": "0x1c7090947a5005ec362f108178270eb3d1bca4c0",
          "topics": [
            "0x297b80e7a896fad470c630f6575072d609bde997260ff3db851939405ec29139"
          ],
          "data": "0x0000000000000000000000000000000000000000000000000cb2bba6f17b8000",
          "blockHash": "0xf1b1bd948da8b819edf79e52f0fddcb3a9e9a7a9514200e46841b777852b18ae",
          "blockNumber": "0x95108f",
          "blockTimestamp": "0x6931d370",
          "transactionHash": "0x9858deef4af662d5756258666e619e3c3a132906504414dd1522b5bf6bd1d0a8",
          "transactionIndex": "0x33",
          "logIndex": "0x140",
          "removed": false
        }
      ],
      "logsBloom": "0x00000000000000000000000000000000000000000000000000000000000000000000000000000000000000000000000000000000000000000000000000000000000000000000000000000000000002000000000000000000000010000000000000040000000004000000000000000000000000000000000004000000000000000000000000000000000000000000000000040000000000000000000000000000000000000000000000000000000000000000000000000000000000000000000000000000000000000000000000000000000000000000000000000000000000000000000000000000000000000000000000000000000000000000000000000000",
      "type": "0x2",
      "transactionHash": "0x9858deef4af662d5756258666e619e3c3a132906504414dd1522b5bf6bd1d0a8",
      "transactionIndex": "0x33",
      "blockHash": "0xf1b1bd948da8b819edf79e52f0fddcb3a9e9a7a9514200e46841b777852b18ae",
      "blockNumber": "0x95108f",
      "gasUsed": "0xba9c",
      "effectiveGasPrice": "0x13d6a04",
      "from": "0xb4b3ebfa3b96f4ae2f0d30b344c8dd01411be50b",
      "to": "0x1c7090947a5005ec362f108178270eb3d1bca4c0",
      "contractAddress": null
    },
    {
      "status": "0x1",
      "cumulativeGasUsed": "0x1054682",
      "logs": [
        {
          "address": "0x1c7090947a5005ec362f108178270eb3d1bca4c0",
          "topics": [
            "0x297b80e7a896fad470c630f6575072d609bde997260ff3db851939405ec29139"
          ],
          "data": "0x0000000000000000000000000000000000000000000000000d1d507e40be8000",
          "blockHash": "0xf1b1bd948da8b819edf79e52f0fddcb3a9e9a7a9514200e46841b777852b18ae",
          "blockNumber": "0x95108f",
          "blockTimestamp": "0x6931d370",
          "transactionHash": "0xb38b15bb3d97b1bb33d4667953be5f10391aa04dacb8a506c0bf66c40f5253ae",
          "transactionIndex": "0x34",
          "logIndex": "0x141",
          "removed": false
        }
      ],
      "logsBloom": "0x00000000000000000000000000000000000000000000000000000000000000000000000000000000000000000000000000000000000000000000000000000000000000000000000000000000000002000000000000000000000010000000000000040000000004000000000000000000000000000000000004000000000000000000000000000000000000000000000000040000000000000000000000000000000000000000000000000000000000000000000000000000000000000000000000000000000000000000000000000000000000000000000000000000000000000000000000000000000000000000000000000000000000000000000000000000",
      "type": "0x2",
      "transactionHash": "0xb38b15bb3d97b1bb33d4667953be5f10391aa04dacb8a506c0bf66c40f5253ae",
      "transactionIndex": "0x34",
      "blockHash": "0xf1b1bd948da8b819edf79e52f0fddcb3a9e9a7a9514200e46841b777852b18ae",
      "blockNumber": "0x95108f",
      "gasUsed": "0xba9c",
      "effectiveGasPrice": "0x13d6a04",
      "from": "0xb4b3ebfa3b96f4ae2f0d30b344c8dd01411be50b",
      "to": "0x1c7090947a5005ec362f108178270eb3d1bca4c0",
      "contractAddress": null
    },
    {
      "status": "0x1",
      "cumulativeGasUsed": "0x106d9c2",
      "logs": [
        {
          "address": "0x1c7090947a5005ec362f108178270eb3d1bca4c0",
          "topics": [
            "0x297b80e7a896fad470c630f6575072d609bde997260ff3db851939405ec29139"
          ],
          "data": "0x0000000000000000000000000000000000000000000000000d645e6320408000",
          "blockHash": "0xf1b1bd948da8b819edf79e52f0fddcb3a9e9a7a9514200e46841b777852b18ae",
          "blockNumber": "0x95108f",
          "blockTimestamp": "0x6931d370",
          "transactionHash": "0x2337379639480cbe92109b469b581061abaddf8edf2766a87ee8a8843ddae940",
          "transactionIndex": "0x36",
          "logIndex": "0x142",
          "removed": false
        }
      ],
      "logsBloom": "0x00000000000000000000000000000000000000000000000000000000000000000000000000000000000000000000000000000000000000000000000000000000000000000000000000000000000002000000000000000000000010000000000000040000000004000000000000000000000000000000000004000000000000000000000000000000000000000000000000040000000000000000000000000000000000000000000000000000000000000000000000000000000000000000000000000000000000000000000000000000000000000000000000000000000000000000000000000000000000000000000000000000000000000000000000000000",
      "type": "0x2",
      "transactionHash": "0x2337379639480cbe92109b469b581061abaddf8edf2766a87ee8a8843ddae940",
      "transactionIndex": "0x36",
      "blockHash": "0xf1b1bd948da8b819edf79e52f0fddcb3a9e9a7a9514200e46841b777852b18ae",
      "blockNumber": "0x95108f",
      "gasUsed": "0xba9c",
      "effectiveGasPrice": "0x13d6a04",
      "from": "0xb4b3ebfa3b96f4ae2f0d30b344c8dd01411be50b",
      "to": "0x1c7090947a5005ec362f108178270eb3d1bca4c0",
      "contractAddress": null
    },
    {
      "status": "0x1",
      "cumulativeGasUsed": "0x1079452",
      "logs": [
        {
          "address": "0x1c7090947a5005ec362f108178270eb3d1bca4c0",
          "topics": [
            "0x297b80e7a896fad470c630f6575072d609bde997260ff3db851939405ec29139"
          ],
          "data": "0x0000000000000000000000000000000000000000000000000d99a8cec7e20000",
          "blockHash": "0xf1b1bd948da8b819edf79e52f0fddcb3a9e9a7a9514200e46841b777852b18ae",
          "blockNumber": "0x95108f",
          "blockTimestamp": "0x6931d370",
          "transactionHash": "0x3d2c1d9a586f5607f715f74583b2ac2851ba089a0fddee0a38be4f594fa5f977",
          "transactionIndex": "0x37",
          "logIndex": "0x143",
          "removed": false
        }
      ],
      "logsBloom": "0x00000000000000000000000000000000000000000000000000000000000000000000000000000000000000000000000000000000000000000000000000000000000000000000000000000000000002000000000000000000000010000000000000040000000004000000000000000000000000000000000004000000000000000000000000000000000000000000000000040000000000000000000000000000000000000000000000000000000000000000000000000000000000000000000000000000000000000000000000000000000000000000000000000000000000000000000000000000000000000000000000000000000000000000000000000000",
      "type": "0x2",
      "transactionHash": "0x3d2c1d9a586f5607f715f74583b2ac2851ba089a0fddee0a38be4f594fa5f977",
      "transactionIndex": "0x37",
      "blockHash": "0xf1b1bd948da8b819edf79e52f0fddcb3a9e9a7a9514200e46841b777852b18ae",
      "blockNumber": "0x95108f",
      "gasUsed": "0xba90",
      "effectiveGasPrice": "0x13d6a04",
      "from": "0xb4b3ebfa3b96f4ae2f0d30b344c8dd01411be50b",
      "to": "0x1c7090947a5005ec362f108178270eb3d1bca4c0",
      "contractAddress": null
    }
  ],
  "libraries": [],
  "pending": [],
  "returns": {},
  "timestamp": 1764873074500,
  "chain": 11155111,
  "commit": "9949f85"
}